{
  "_format": "hh-sol-artifact-1",
  "contractName": "RobotMarketPlace",
  "sourceName": "contracts/RobotMarketPlace.sol",
  "abi": [
    {
      "anonymous": false,
      "inputs": [
        {
          "indexed": true,
          "internalType": "address",
          "name": "owner",
          "type": "address"
        },
        {
          "indexed": true,
          "internalType": "address",
          "name": "approved",
          "type": "address"
        },
        {
          "indexed": true,
          "internalType": "uint256",
          "name": "tokenId",
          "type": "uint256"
        }
      ],
      "name": "Approval",
      "type": "event"
    },
    {
      "anonymous": false,
      "inputs": [
        {
          "indexed": true,
          "internalType": "address",
          "name": "owner",
          "type": "address"
        },
        {
          "indexed": true,
          "internalType": "address",
          "name": "operator",
          "type": "address"
        },
        {
          "indexed": false,
          "internalType": "bool",
          "name": "approved",
          "type": "bool"
        }
      ],
      "name": "ApprovalForAll",
      "type": "event"
    },
    {
      "anonymous": false,
      "inputs": [
        {
          "indexed": false,
          "internalType": "address",
          "name": "owner",
          "type": "address"
        },
        {
          "indexed": false,
          "internalType": "uint64",
          "name": "buildTime",
          "type": "uint64"
        },
        {
          "indexed": false,
          "internalType": "uint64",
          "name": "robotId",
          "type": "uint64"
        },
        {
          "indexed": false,
          "internalType": "uint64",
          "name": "firstRobotParentId",
          "type": "uint64"
        },
        {
          "indexed": false,
          "internalType": "uint64",
          "name": "secondRobotParentId",
          "type": "uint64"
        },
        {
          "indexed": false,
          "internalType": "uint32",
          "name": "generation",
          "type": "uint32"
        },
        {
          "indexed": false,
          "internalType": "uint32",
          "name": "tokenId",
          "type": "uint32"
        }
      ],
      "name": "Build",
      "type": "event"
    },
    {
      "anonymous": false,
      "inputs": [
        {
          "indexed": false,
          "internalType": "string",
          "name": "TxType",
          "type": "string"
        },
        {
          "indexed": false,
          "internalType": "address",
          "name": "owner",
          "type": "address"
        },
        {
          "indexed": false,
          "internalType": "uint256",
          "name": "tokenId",
          "type": "uint256"
        }
      ],
      "name": "MarketTransaction",
      "type": "event"
    },
    {
      "anonymous": false,
      "inputs": [
        {
          "indexed": true,
          "internalType": "address",
          "name": "from",
          "type": "address"
        },
        {
          "indexed": true,
          "internalType": "address",
          "name": "to",
          "type": "address"
        },
        {
          "indexed": true,
          "internalType": "uint256",
          "name": "tokenId",
          "type": "uint256"
        }
      ],
      "name": "Transfer",
      "type": "event"
    },
    {
      "inputs": [
        {
          "internalType": "address",
          "name": "to",
          "type": "address"
        },
        {
          "internalType": "uint256",
          "name": "tokenId",
          "type": "uint256"
        }
      ],
      "name": "approve",
      "outputs": [],
      "stateMutability": "nonpayable",
      "type": "function"
    },
    {
      "inputs": [
        {
          "internalType": "address",
          "name": "owner",
          "type": "address"
        }
      ],
      "name": "balanceOf",
      "outputs": [
        {
          "internalType": "uint256",
          "name": "",
          "type": "uint256"
        }
      ],
      "stateMutability": "view",
      "type": "function"
    },
    {
      "inputs": [
        {
          "internalType": "uint256",
          "name": "_tokenId",
          "type": "uint256"
        }
      ],
      "name": "buyRobot",
      "outputs": [],
      "stateMutability": "payable",
      "type": "function"
    },
    {
      "inputs": [],
      "name": "getAllTokensOnSale",
      "outputs": [
        {
          "internalType": "uint256[]",
          "name": "listOfToken",
          "type": "uint256[]"
        }
      ],
      "stateMutability": "view",
      "type": "function"
    },
    {
      "inputs": [
        {
          "internalType": "uint256",
          "name": "tokenId",
          "type": "uint256"
        }
      ],
      "name": "getApproved",
      "outputs": [
        {
          "internalType": "address",
          "name": "",
          "type": "address"
        }
      ],
      "stateMutability": "view",
      "type": "function"
    },
    {
      "inputs": [
        {
          "internalType": "uint256",
          "name": "_tokenId",
          "type": "uint256"
        }
      ],
      "name": "getOffer",
      "outputs": [
        {
          "internalType": "address payable",
          "name": "seller",
          "type": "address"
        },
        {
          "internalType": "uint256",
          "name": "price",
          "type": "uint256"
        },
        {
          "internalType": "uint256",
          "name": "tokenId",
          "type": "uint256"
        }
      ],
      "stateMutability": "view",
      "type": "function"
    },
    {
      "inputs": [
        {
          "internalType": "address",
          "name": "owner",
          "type": "address"
        },
        {
          "internalType": "address",
          "name": "operator",
          "type": "address"
        }
      ],
      "name": "isApprovedForAll",
      "outputs": [
        {
          "internalType": "bool",
          "name": "",
          "type": "bool"
        }
      ],
      "stateMutability": "view",
      "type": "function"
    },
    {
      "inputs": [],
      "name": "name",
      "outputs": [
        {
          "internalType": "string",
          "name": "",
          "type": "string"
        }
      ],
      "stateMutability": "view",
      "type": "function"
    },
    {
      "inputs": [
        {
          "internalType": "uint256",
          "name": "tokenId",
          "type": "uint256"
        }
      ],
      "name": "ownerOf",
      "outputs": [
        {
          "internalType": "address",
          "name": "",
          "type": "address"
        }
      ],
      "stateMutability": "view",
      "type": "function"
    },
    {
      "inputs": [
        {
          "internalType": "uint256",
          "name": "_tokenId",
          "type": "uint256"
        }
      ],
      "name": "removeOffer",
      "outputs": [],
      "stateMutability": "nonpayable",
      "type": "function"
    },
    {
      "inputs": [
        {
          "internalType": "address",
          "name": "from",
          "type": "address"
        },
        {
          "internalType": "address",
          "name": "to",
          "type": "address"
        },
        {
          "internalType": "uint256",
          "name": "tokenId",
          "type": "uint256"
        }
      ],
      "name": "safeTransferFrom",
      "outputs": [],
      "stateMutability": "nonpayable",
      "type": "function"
    },
    {
      "inputs": [
        {
          "internalType": "address",
          "name": "from",
          "type": "address"
        },
        {
          "internalType": "address",
          "name": "to",
          "type": "address"
        },
        {
          "internalType": "uint256",
          "name": "tokenId",
          "type": "uint256"
        },
        {
          "internalType": "bytes",
          "name": "data",
          "type": "bytes"
        }
      ],
      "name": "safeTransferFrom",
      "outputs": [],
      "stateMutability": "nonpayable",
      "type": "function"
    },
    {
      "inputs": [
        {
          "internalType": "address",
          "name": "operator",
          "type": "address"
        },
        {
          "internalType": "bool",
          "name": "approved",
          "type": "bool"
        }
      ],
      "name": "setApprovalForAll",
      "outputs": [],
      "stateMutability": "nonpayable",
      "type": "function"
    },
    {
      "inputs": [
        {
          "internalType": "uint256",
          "name": "_price",
          "type": "uint256"
        },
        {
          "internalType": "uint256",
          "name": "_tokenId",
          "type": "uint256"
        }
      ],
      "name": "setOffer",
      "outputs": [],
      "stateMutability": "nonpayable",
      "type": "function"
    },
    {
      "inputs": [
        {
          "internalType": "bytes4",
          "name": "interfaceId",
          "type": "bytes4"
        }
      ],
      "name": "supportsInterface",
      "outputs": [
        {
          "internalType": "bool",
          "name": "",
          "type": "bool"
        }
      ],
      "stateMutability": "view",
      "type": "function"
    },
    {
      "inputs": [],
      "name": "symbol",
      "outputs": [
        {
          "internalType": "string",
          "name": "",
          "type": "string"
        }
      ],
      "stateMutability": "view",
      "type": "function"
    },
    {
      "inputs": [
        {
          "internalType": "uint256",
          "name": "tokenId",
          "type": "uint256"
        }
      ],
      "name": "tokenURI",
      "outputs": [
        {
          "internalType": "string",
          "name": "",
          "type": "string"
        }
      ],
      "stateMutability": "view",
      "type": "function"
    },
    {
      "inputs": [
        {
          "internalType": "address",
          "name": "owner_",
          "type": "address"
        }
      ],
      "name": "tokensOfOwner",
      "outputs": [
        {
          "internalType": "uint256[]",
          "name": "ownerTokens",
          "type": "uint256[]"
        }
      ],
      "stateMutability": "view",
      "type": "function"
    },
    {
      "inputs": [],
      "name": "totalSupply",
      "outputs": [
        {
          "internalType": "uint256",
          "name": "",
          "type": "uint256"
        }
      ],
      "stateMutability": "view",
      "type": "function"
    },
    {
      "inputs": [
        {
          "internalType": "address",
          "name": "from",
          "type": "address"
        },
        {
          "internalType": "address",
          "name": "to",
          "type": "address"
        },
        {
          "internalType": "uint256",
          "name": "tokenId",
          "type": "uint256"
        }
      ],
      "name": "transferFrom",
      "outputs": [],
      "stateMutability": "nonpayable",
      "type": "function"
    }
  ],
  "bytecode": "0x60806040523480156200001157600080fd5b506040518060400160405280600c81526020016b2a32b1b43737b4b921b63ab160a11b815250604051806040016040528060048152602001632727a4a960e11b815250816000908162000065919062000122565b50600162000074828262000122565b505050620001ee565b634e487b7160e01b600052604160045260246000fd5b600181811c90821680620000a857607f821691505b602082108103620000c957634e487b7160e01b600052602260045260246000fd5b50919050565b601f8211156200011d57600081815260208120601f850160051c81016020861015620000f85750805b601f850160051c820191505b81811015620001195782815560010162000104565b5050505b505050565b81516001600160401b038111156200013e576200013e6200007d565b62000156816200014f845462000093565b84620000cf565b602080601f8311600181146200018e5760008415620001755750858301515b600019600386901b1c1916600185901b17855562000119565b600085815260208120601f198616915b82811015620001bf578886015182559484019460019091019084016200019e565b5085821015620001de5787850151600019600388901b60f8161c191681555b5050505050600190811b01905550565b611c7080620001fe6000396000f3fe60806040526004361061011f5760003560e01c80638462151c116100a0578063ae6b016c11610064578063ae6b016c14610383578063b331ae5714610398578063b88d4fde146103ab578063c87b56dd146103cb578063e985e9c5146103eb57600080fd5b80638462151c146102e1578063941b055b1461030e57806395a0f9c71461032e57806395d89b411461034e578063a22cb4651461036357600080fd5b806323b872dd116100e757806323b872dd146101f857806342842e0e146102185780634579268a146102385780636352211e146102a157806370a08231146102c157600080fd5b806301ffc9a71461012457806306fdde0314610159578063081812fc1461017b578063095ea7b3146101b357806318160ddd146101d5575b600080fd5b34801561013057600080fd5b5061014461013f366004611710565b610434565b60405190151581526020015b60405180910390f35b34801561016557600080fd5b5061016e610486565b6040516101509190611785565b34801561018757600080fd5b5061019b610196366004611798565b610518565b6040516001600160a01b039091168152602001610150565b3480156101bf57600080fd5b506101d36101ce3660046117cd565b61053f565b005b3480156101e157600080fd5b506101ea610659565b604051908152602001610150565b34801561020457600080fd5b506101d36102133660046117f7565b610670565b34801561022457600080fd5b506101d36102333660046117f7565b6106a1565b34801561024457600080fd5b5061027c610253366004611798565b6000908152600860205260409020805460018201546002909201546001600160a01b0390911692565b604080516001600160a01b039094168452602084019290925290820152606001610150565b3480156102ad57600080fd5b5061019b6102bc366004611798565b6106bc565b3480156102cd57600080fd5b506101ea6102dc366004611833565b61071c565b3480156102ed57600080fd5b506103016102fc366004611833565b6107a2565b604051610150919061184e565b34801561031a57600080fd5b506101d3610329366004611892565b61089d565b34801561033a57600080fd5b506101d3610349366004611798565b610aca565b34801561035a57600080fd5b5061016e610d19565b34801561036f57600080fd5b506101d361037e3660046118b4565b610d28565b34801561038f57600080fd5b50610301610d37565b6101d36103a6366004611798565b610e35565b3480156103b757600080fd5b506101d36103c6366004611906565b611060565b3480156103d757600080fd5b5061016e6103e6366004611798565b611098565b3480156103f757600080fd5b506101446104063660046119e2565b6001600160a01b03918216600090815260056020908152604080832093909416825291909152205460ff1690565b60006001600160e01b031982166380ac58cd60e01b148061046557506001600160e01b03198216635b5e139f60e01b145b8061048057506301ffc9a760e01b6001600160e01b03198316145b92915050565b60606000805461049590611a15565b80601f01602080910402602001604051908101604052809291908181526020018280546104c190611a15565b801561050e5780601f106104e35761010080835404028352916020019161050e565b820191906000526020600020905b8154815290600101906020018083116104f157829003601f168201915b5050505050905090565b60006105238261110c565b506000908152600460205260409020546001600160a01b031690565b600061054a826106bc565b9050806001600160a01b0316836001600160a01b0316036105bc5760405162461bcd60e51b815260206004820152602160248201527f4552433732313a20617070726f76616c20746f2063757272656e74206f776e656044820152603960f91b60648201526084015b60405180910390fd5b336001600160a01b03821614806105d857506105d88133610406565b61064a5760405162461bcd60e51b815260206004820152603e60248201527f4552433732313a20617070726f76652063616c6c6572206973206e6f7420746f60448201527f6b656e206f776e6572206e6f7220617070726f76656420666f7220616c6c000060648201526084016105b3565b610654838361116e565b505050565b60065460009061066b90600190611a5f565b905090565b61067a33826111dc565b6106965760405162461bcd60e51b81526004016105b390611a76565b61065483838361125b565b61065483838360405180602001604052806000815250611060565b6000818152600260205260408120546001600160a01b0316806104805760405162461bcd60e51b8152602060048201526018602482015277115490cdcc8c4e881a5b9d985b1a59081d1bdad95b88125160421b60448201526064016105b3565b60006001600160a01b0382166107865760405162461bcd60e51b815260206004820152602960248201527f4552433732313a2061646472657373207a65726f206973206e6f7420612076616044820152683634b21037bbb732b960b91b60648201526084016105b3565b506001600160a01b031660009081526003602052604090205490565b606060006107af8361071c565b9050806000036107cf575050604080516000815260208101909152919050565b60008167ffffffffffffffff8111156107ea576107ea6118f0565b604051908082528060200260200182016040528015610813578160200160208202803683370190505b5090506000610820610659565b90506000805b82811161088c57866001600160a01b0316610840826106bc565b6001600160a01b03160361087a578084838151811061086157610861611ac4565b60209081029190910101528161087681611ada565b9250505b8061088481611ada565b915050610826565b509195945050505050565b50919050565b816000036108e45760405162461bcd60e51b815260206004820152601460248201527350726963652063616e6e6f74206265207a65726f60601b60448201526064016105b3565b6000818152600860205260409020600101541561094f5760405162461bcd60e51b8152602060048201526024808201527f596f752063616e27742073656c6c207477696365207468652073616d65206f666044820152636665727360e01b60648201526084016105b3565b60408051606081018252338152602080820185815282840185815260008681526008909352938220835181546001600160a01b039182166001600160a01b031991821617835583516001808501919091558751600290940193909355600780548085018255818752875160039091027fa66cc928b5edb82af9bd49922954155ab7b0942694bea4ce44661d9a8736c6888101805492909516919093161790925592517fa66cc928b5edb82af9bd49922954155ab7b0942694bea4ce44661d9a8736c68984015594517fa66cc928b5edb82af9bd49922954155ab7b0942694bea4ce44661d9a8736c68a90920191909155925491929091610a4f9190611a5f565b60008481526009602090815260409182902083905581516060808252600c908201526b21b932b0ba329037b33332b960a11b608082015233918101919091529081018590529091507fd99e4fad9ad6313b1feb588fa8e605e3a9873172f2024330c35dd2b4041a43869060a00160405180910390a150505050565b33610ad4826106bc565b6001600160a01b031614610b2a5760405162461bcd60e51b815260206004820152601f60248201527f546865207573657220646f65736e2774206f776e207468697320746f6b656e0060448201526064016105b3565b600081815260086020908152604091829020825160608101845281546001600160a01b0316808252600183015493820193909352600290910154928101929092523314610bb05760405162461bcd60e51b81526020600482015260146024820152734e6f2073756368206f666665722065786973747360601b60448201526064016105b3565b60078054610bc090600190611a5f565b81548110610bd057610bd0611ac4565b90600052602060002090600302016007600960008581526020019081526020016000205481548110610c0457610c04611ac4565b60009182526020909120825460039092020180546001600160a01b0319166001600160a01b03909216919091178155600180830154908201556002918201549101556007805480610c5757610c57611af3565b6000828152602080822060036000199094019384020180546001600160a01b03199081168255600182810185905560029283018590559490955586835260089091526040822080549094168455918301819055910155610cb7338361116e565b604080516060808252600c908201526b2932b6b7bb329037b33332b960a11b60808201523360208201529081018390527fd99e4fad9ad6313b1feb588fa8e605e3a9873172f2024330c35dd2b4041a43869060a0015b60405180910390a15050565b60606001805461049590611a15565b610d333383836113f7565b5050565b6007546060906000819003610d5a57505060408051600081526020810190915290565b60008167ffffffffffffffff811115610d7557610d756118f0565b604051908082528060200260200182016040528015610d9e578160200160208202803683370190505b50905060005b82811015610e2e5760078181548110610dbf57610dbf611ac4565b906000526020600020906003020160010154600014610e1c5760078181548110610deb57610deb611ac4565b906000526020600020906003020160020154828281518110610e0f57610e0f611ac4565b6020026020010181815250505b80610e2681611ada565b915050610da4565b5092915050565b600081815260086020908152604091829020825160608101845281546001600160a01b031681526001820154928101839052600290910154928101929092523414610ec25760405162461bcd60e51b815260206004820152601860248201527f546865207072696365206973206e6f7420636f7272656374000000000000000060448201526064016105b3565b60078054610ed290600190611a5f565b81548110610ee257610ee2611ac4565b90600052602060002090600302016007600960008581526020019081526020016000205481548110610f1657610f16611ac4565b60009182526020909120825460039092020180546001600160a01b0319166001600160a01b03909216919091178155600180830154908201556002918201549101556007805480610f6957610f69611af3565b6000828152602080822060036000199094019384020180546001600160a01b03199081168255600182810185905560029283018590559490955586835260089091526040822080549094168455918301819055910155610fc9338361116e565b8051610fd6903384610670565b80516040516001600160a01b03909116903480156108fc02916000818181858888f1935050505015801561100e573d6000803e3d6000fd5b506040805160608082526003908201526242757960e81b60808201523360208201529081018390527fd99e4fad9ad6313b1feb588fa8e605e3a9873172f2024330c35dd2b4041a43869060a001610d0d565b61106a33836111dc565b6110865760405162461bcd60e51b81526004016105b390611a76565b611092848484846114c5565b50505050565b60606110a38261110c565b60006110ba60408051602081019091526000815290565b905060008151116110da5760405180602001604052806000815250611105565b806110e4846114f8565b6040516020016110f5929190611b09565b6040516020818303038152906040525b9392505050565b6000818152600260205260409020546001600160a01b031661116b5760405162461bcd60e51b8152602060048201526018602482015277115490cdcc8c4e881a5b9d985b1a59081d1bdad95b88125160421b60448201526064016105b3565b50565b600081815260046020526040902080546001600160a01b0319166001600160a01b03841690811790915581906111a3826106bc565b6001600160a01b03167f8c5be1e5ebec7d5bd14f71427d1e84f3dd0314c0f7b2291e5b200ac8c7c3b92560405160405180910390a45050565b6000806111e8836106bc565b9050806001600160a01b0316846001600160a01b0316148061122f57506001600160a01b0380821660009081526005602090815260408083209388168352929052205460ff165b806112535750836001600160a01b031661124884610518565b6001600160a01b0316145b949350505050565b826001600160a01b031661126e826106bc565b6001600160a01b0316146112d25760405162461bcd60e51b815260206004820152602560248201527f4552433732313a207472616e736665722066726f6d20696e636f72726563742060448201526437bbb732b960d91b60648201526084016105b3565b6001600160a01b0382166113345760405162461bcd60e51b8152602060048201526024808201527f4552433732313a207472616e7366657220746f20746865207a65726f206164646044820152637265737360e01b60648201526084016105b3565b61133f60008261116e565b6001600160a01b0383166000908152600360205260408120805460019290611368908490611a5f565b90915550506001600160a01b0382166000908152600360205260408120805460019290611396908490611b38565b909155505060008181526002602052604080822080546001600160a01b0319166001600160a01b0386811691821790925591518493918716917fddf252ad1be2c89b69c2b068fc378daa952ba7f163c4a11628f55a4df523b3ef91a4505050565b816001600160a01b0316836001600160a01b0316036114585760405162461bcd60e51b815260206004820152601960248201527f4552433732313a20617070726f766520746f2063616c6c65720000000000000060448201526064016105b3565b6001600160a01b03838116600081815260056020908152604080832094871680845294825291829020805460ff191686151590811790915591519182527f17307eab39ab6107e8899845ad3d59bd9653f200f220920489ca2b5937696c31910160405180910390a3505050565b6114d084848461125b565b6114dc848484846115f9565b6110925760405162461bcd60e51b81526004016105b390611b50565b60608160000361151f5750506040805180820190915260018152600360fc1b602082015290565b8160005b8115611549578061153381611ada565b91506115429050600a83611bb8565b9150611523565b60008167ffffffffffffffff811115611564576115646118f0565b6040519080825280601f01601f19166020018201604052801561158e576020820181803683370190505b5090505b8415611253576115a3600183611a5f565b91506115b0600a86611bcc565b6115bb906030611b38565b60f81b8183815181106115d0576115d0611ac4565b60200101906001600160f81b031916908160001a9053506115f2600a86611bb8565b9450611592565b60006001600160a01b0384163b156116ef57604051630a85bd0160e11b81526001600160a01b0385169063150b7a029061163d903390899088908890600401611be0565b6020604051808303816000875af1925050508015611678575060408051601f3d908101601f1916820190925261167591810190611c1d565b60015b6116d5573d8080156116a6576040519150601f19603f3d011682016040523d82523d6000602084013e6116ab565b606091505b5080516000036116cd5760405162461bcd60e51b81526004016105b390611b50565b805181602001fd5b6001600160e01b031916630a85bd0160e11b149050611253565b506001949350505050565b6001600160e01b03198116811461116b57600080fd5b60006020828403121561172257600080fd5b8135611105816116fa565b60005b83811015611748578181015183820152602001611730565b838111156110925750506000910152565b6000815180845261177181602086016020860161172d565b601f01601f19169290920160200192915050565b6020815260006111056020830184611759565b6000602082840312156117aa57600080fd5b5035919050565b80356001600160a01b03811681146117c857600080fd5b919050565b600080604083850312156117e057600080fd5b6117e9836117b1565b946020939093013593505050565b60008060006060848603121561180c57600080fd5b611815846117b1565b9250611823602085016117b1565b9150604084013590509250925092565b60006020828403121561184557600080fd5b611105826117b1565b6020808252825182820181905260009190848201906040850190845b818110156118865783518352928401929184019160010161186a565b50909695505050505050565b600080604083850312156118a557600080fd5b50508035926020909101359150565b600080604083850312156118c757600080fd5b6118d0836117b1565b9150602083013580151581146118e557600080fd5b809150509250929050565b634e487b7160e01b600052604160045260246000fd5b6000806000806080858703121561191c57600080fd5b611925856117b1565b9350611933602086016117b1565b925060408501359150606085013567ffffffffffffffff8082111561195757600080fd5b818701915087601f83011261196b57600080fd5b81358181111561197d5761197d6118f0565b604051601f8201601f19908116603f011681019083821181831017156119a5576119a56118f0565b816040528281528a60208487010111156119be57600080fd5b82602086016020830137600060208483010152809550505050505092959194509250565b600080604083850312156119f557600080fd5b6119fe836117b1565b9150611a0c602084016117b1565b90509250929050565b600181811c90821680611a2957607f821691505b60208210810361089757634e487b7160e01b600052602260045260246000fd5b634e487b7160e01b600052601160045260246000fd5b600082821015611a7157611a71611a49565b500390565b6020808252602e908201527f4552433732313a2063616c6c6572206973206e6f7420746f6b656e206f776e6560408201526d1c881b9bdc88185c1c1c9bdd995960921b606082015260800190565b634e487b7160e01b600052603260045260246000fd5b600060018201611aec57611aec611a49565b5060010190565b634e487b7160e01b600052603160045260246000fd5b60008351611b1b81846020880161172d565b835190830190611b2f81836020880161172d565b01949350505050565b60008219821115611b4b57611b4b611a49565b500190565b60208082526032908201527f4552433732313a207472616e7366657220746f206e6f6e20455243373231526560408201527131b2b4bb32b91034b6b83632b6b2b73a32b960711b606082015260800190565b634e487b7160e01b600052601260045260246000fd5b600082611bc757611bc7611ba2565b500490565b600082611bdb57611bdb611ba2565b500690565b6001600160a01b0385811682528416602082015260408101839052608060608201819052600090611c1390830184611759565b9695505050505050565b600060208284031215611c2f57600080fd5b8151611105816116fa56fea26469706673582212204d9d969d81fa67766c87770897b2122bb004bec2770945f7e3376b70ddc3472264736f6c634300080f0033",
  "linkReferences": {},
  "deployedLinkReferences": {}
}