{
  "_format": "hh-sol-artifact-1",
  "contractName": "RobotCore",
  "sourceName": "contracts/RobotCore.sol",
  "abi": [
    {
      "inputs": [
        {
          "internalType": "uint256",
          "name": "_gen0Limit",
          "type": "uint256"
        }
      ],
      "stateMutability": "nonpayable",
      "type": "constructor"
    },
    {
      "anonymous": false,
      "inputs": [
        {
          "indexed": true,
          "internalType": "address",
          "name": "owner",
          "type": "address"
        },
        {
          "indexed": true,
          "internalType": "address",
          "name": "approved",
          "type": "address"
        },
        {
          "indexed": true,
          "internalType": "uint256",
          "name": "tokenId",
          "type": "uint256"
        }
      ],
      "name": "Approval",
      "type": "event"
    },
    {
      "anonymous": false,
      "inputs": [
        {
          "indexed": true,
          "internalType": "address",
          "name": "owner",
          "type": "address"
        },
        {
          "indexed": true,
          "internalType": "address",
          "name": "operator",
          "type": "address"
        },
        {
          "indexed": false,
          "internalType": "bool",
          "name": "approved",
          "type": "bool"
        }
      ],
      "name": "ApprovalForAll",
      "type": "event"
    },
    {
      "anonymous": false,
      "inputs": [
        {
          "indexed": false,
          "internalType": "address",
          "name": "owner",
          "type": "address"
        },
        {
          "indexed": false,
          "internalType": "uint64",
          "name": "buildTime",
          "type": "uint64"
        },
        {
          "indexed": false,
          "internalType": "uint64",
          "name": "robotId",
          "type": "uint64"
        },
        {
          "indexed": false,
          "internalType": "uint64",
          "name": "firstRobotParentId",
          "type": "uint64"
        },
        {
          "indexed": false,
          "internalType": "uint64",
          "name": "secondRobotParentId",
          "type": "uint64"
        },
        {
          "indexed": false,
          "internalType": "uint32",
          "name": "generation",
          "type": "uint32"
        },
        {
          "indexed": false,
          "internalType": "uint32",
          "name": "tokenId",
          "type": "uint32"
        }
      ],
      "name": "Build",
      "type": "event"
    },
    {
      "anonymous": false,
      "inputs": [
        {
          "indexed": false,
          "internalType": "string",
          "name": "TxType",
          "type": "string"
        },
        {
          "indexed": false,
          "internalType": "address",
          "name": "owner",
          "type": "address"
        },
        {
          "indexed": false,
          "internalType": "uint256",
          "name": "tokenId",
          "type": "uint256"
        }
      ],
      "name": "MarketTransaction",
      "type": "event"
    },
    {
      "anonymous": false,
      "inputs": [
        {
          "indexed": true,
          "internalType": "address",
          "name": "previousOwner",
          "type": "address"
        },
        {
          "indexed": true,
          "internalType": "address",
          "name": "newOwner",
          "type": "address"
        }
      ],
      "name": "OwnershipTransferred",
      "type": "event"
    },
    {
      "anonymous": false,
      "inputs": [
        {
          "indexed": true,
          "internalType": "address",
          "name": "from",
          "type": "address"
        },
        {
          "indexed": true,
          "internalType": "address",
          "name": "to",
          "type": "address"
        },
        {
          "indexed": true,
          "internalType": "uint256",
          "name": "tokenId",
          "type": "uint256"
        }
      ],
      "name": "Transfer",
      "type": "event"
    },
    {
      "inputs": [],
      "name": "CREATION_LIMIT_GEN0",
      "outputs": [
        {
          "internalType": "uint256",
          "name": "",
          "type": "uint256"
        }
      ],
      "stateMutability": "view",
      "type": "function"
    },
    {
      "inputs": [
        {
          "internalType": "address",
          "name": "to",
          "type": "address"
        },
        {
          "internalType": "uint256",
          "name": "tokenId",
          "type": "uint256"
        }
      ],
      "name": "approve",
      "outputs": [],
      "stateMutability": "nonpayable",
      "type": "function"
    },
    {
      "inputs": [
        {
          "internalType": "address",
          "name": "owner",
          "type": "address"
        }
      ],
      "name": "balanceOf",
      "outputs": [
        {
          "internalType": "uint256",
          "name": "",
          "type": "uint256"
        }
      ],
      "stateMutability": "view",
      "type": "function"
    },
    {
      "inputs": [
        {
          "internalType": "uint256",
          "name": "_tokenId",
          "type": "uint256"
        }
      ],
      "name": "buyRobot",
      "outputs": [],
      "stateMutability": "payable",
      "type": "function"
    },
    {
      "inputs": [
        {
          "internalType": "uint64",
          "name": "_id",
          "type": "uint64"
        }
      ],
      "name": "createRobotGen0",
      "outputs": [],
      "stateMutability": "nonpayable",
      "type": "function"
    },
    {
      "inputs": [],
      "name": "getAllTokensOnSale",
      "outputs": [
        {
          "internalType": "uint256[]",
          "name": "listOfToken",
          "type": "uint256[]"
        }
      ],
      "stateMutability": "view",
      "type": "function"
    },
    {
      "inputs": [
        {
          "internalType": "uint256",
          "name": "tokenId",
          "type": "uint256"
        }
      ],
      "name": "getApproved",
      "outputs": [
        {
          "internalType": "address",
          "name": "",
          "type": "address"
        }
      ],
      "stateMutability": "view",
      "type": "function"
    },
    {
      "inputs": [],
      "name": "getCreatedGen0",
      "outputs": [
        {
          "internalType": "uint256",
          "name": "",
          "type": "uint256"
        }
      ],
      "stateMutability": "view",
      "type": "function"
    },
    {
      "inputs": [
        {
          "internalType": "uint256",
          "name": "_tokenId",
          "type": "uint256"
        }
      ],
      "name": "getOffer",
      "outputs": [
        {
          "internalType": "address payable",
          "name": "seller",
          "type": "address"
        },
        {
          "internalType": "uint256",
          "name": "price",
          "type": "uint256"
        },
        {
          "internalType": "uint256",
          "name": "tokenId",
          "type": "uint256"
        }
      ],
      "stateMutability": "view",
      "type": "function"
    },
    {
      "inputs": [
        {
          "internalType": "uint64",
          "name": "_id",
          "type": "uint64"
        }
      ],
      "name": "getRobot",
      "outputs": [
        {
          "internalType": "uint64",
          "name": "robotId",
          "type": "uint64"
        },
        {
          "internalType": "uint64",
          "name": "buildTime",
          "type": "uint64"
        },
        {
          "internalType": "uint64",
          "name": "firstRobotParentId",
          "type": "uint64"
        },
        {
          "internalType": "uint64",
          "name": "secondRobotParentId",
          "type": "uint64"
        },
        {
          "internalType": "uint32",
          "name": "generation",
          "type": "uint32"
        },
        {
          "internalType": "uint32",
          "name": "tokenId",
          "type": "uint32"
        }
      ],
      "stateMutability": "view",
      "type": "function"
    },
    {
      "inputs": [
        {
          "internalType": "address",
          "name": "owner",
          "type": "address"
        },
        {
          "internalType": "address",
          "name": "operator",
          "type": "address"
        }
      ],
      "name": "isApprovedForAll",
      "outputs": [
        {
          "internalType": "bool",
          "name": "",
          "type": "bool"
        }
      ],
      "stateMutability": "view",
      "type": "function"
    },
    {
      "inputs": [
        {
          "internalType": "uint64",
          "name": "_firstRobotParentId",
          "type": "uint64"
        },
        {
          "internalType": "uint64",
          "name": "_secondRobotParentId",
          "type": "uint64"
        }
      ],
      "name": "modifying",
      "outputs": [],
      "stateMutability": "nonpayable",
      "type": "function"
    },
    {
      "inputs": [],
      "name": "name",
      "outputs": [
        {
          "internalType": "string",
          "name": "",
          "type": "string"
        }
      ],
      "stateMutability": "view",
      "type": "function"
    },
    {
      "inputs": [],
      "name": "owner",
      "outputs": [
        {
          "internalType": "address",
          "name": "",
          "type": "address"
        }
      ],
      "stateMutability": "view",
      "type": "function"
    },
    {
      "inputs": [
        {
          "internalType": "uint256",
          "name": "tokenId",
          "type": "uint256"
        }
      ],
      "name": "ownerOf",
      "outputs": [
        {
          "internalType": "address",
          "name": "",
          "type": "address"
        }
      ],
      "stateMutability": "view",
      "type": "function"
    },
    {
      "inputs": [
        {
          "internalType": "uint256",
          "name": "_tokenId",
          "type": "uint256"
        }
      ],
      "name": "removeOffer",
      "outputs": [],
      "stateMutability": "nonpayable",
      "type": "function"
    },
    {
      "inputs": [],
      "name": "renounceOwnership",
      "outputs": [],
      "stateMutability": "nonpayable",
      "type": "function"
    },
    {
      "inputs": [
        {
          "internalType": "address",
          "name": "from",
          "type": "address"
        },
        {
          "internalType": "address",
          "name": "to",
          "type": "address"
        },
        {
          "internalType": "uint256",
          "name": "tokenId",
          "type": "uint256"
        }
      ],
      "name": "safeTransferFrom",
      "outputs": [],
      "stateMutability": "nonpayable",
      "type": "function"
    },
    {
      "inputs": [
        {
          "internalType": "address",
          "name": "from",
          "type": "address"
        },
        {
          "internalType": "address",
          "name": "to",
          "type": "address"
        },
        {
          "internalType": "uint256",
          "name": "tokenId",
          "type": "uint256"
        },
        {
          "internalType": "bytes",
          "name": "data",
          "type": "bytes"
        }
      ],
      "name": "safeTransferFrom",
      "outputs": [],
      "stateMutability": "nonpayable",
      "type": "function"
    },
    {
      "inputs": [
        {
          "internalType": "address",
          "name": "operator",
          "type": "address"
        },
        {
          "internalType": "bool",
          "name": "approved",
          "type": "bool"
        }
      ],
      "name": "setApprovalForAll",
      "outputs": [],
      "stateMutability": "nonpayable",
      "type": "function"
    },
    {
      "inputs": [
        {
          "internalType": "uint256",
          "name": "_price",
          "type": "uint256"
        },
        {
          "internalType": "uint256",
          "name": "_tokenId",
          "type": "uint256"
        }
      ],
      "name": "setOffer",
      "outputs": [],
      "stateMutability": "nonpayable",
      "type": "function"
    },
    {
      "inputs": [
        {
          "internalType": "bytes4",
          "name": "interfaceId",
          "type": "bytes4"
        }
      ],
      "name": "supportsInterface",
      "outputs": [
        {
          "internalType": "bool",
          "name": "",
          "type": "bool"
        }
      ],
      "stateMutability": "view",
      "type": "function"
    },
    {
      "inputs": [],
      "name": "symbol",
      "outputs": [
        {
          "internalType": "string",
          "name": "",
          "type": "string"
        }
      ],
      "stateMutability": "view",
      "type": "function"
    },
    {
      "inputs": [
        {
          "internalType": "uint256",
          "name": "tokenId",
          "type": "uint256"
        }
      ],
      "name": "tokenURI",
      "outputs": [
        {
          "internalType": "string",
          "name": "",
          "type": "string"
        }
      ],
      "stateMutability": "view",
      "type": "function"
    },
    {
      "inputs": [
        {
          "internalType": "address",
          "name": "owner_",
          "type": "address"
        }
      ],
      "name": "tokensOfOwner",
      "outputs": [
        {
          "internalType": "uint256[]",
          "name": "ownerTokens",
          "type": "uint256[]"
        }
      ],
      "stateMutability": "view",
      "type": "function"
    },
    {
      "inputs": [],
      "name": "totalSupply",
      "outputs": [
        {
          "internalType": "uint256",
          "name": "",
          "type": "uint256"
        }
      ],
      "stateMutability": "view",
      "type": "function"
    },
    {
      "inputs": [
        {
          "internalType": "address",
          "name": "from",
          "type": "address"
        },
        {
          "internalType": "address",
          "name": "to",
          "type": "address"
        },
        {
          "internalType": "uint256",
          "name": "tokenId",
          "type": "uint256"
        }
      ],
      "name": "transferFrom",
      "outputs": [],
      "stateMutability": "nonpayable",
      "type": "function"
    },
    {
      "inputs": [
        {
          "internalType": "address",
          "name": "newOwner",
          "type": "address"
        }
      ],
      "name": "transferOwnership",
      "outputs": [],
      "stateMutability": "nonpayable",
      "type": "function"
    }
  ],
  "bytecode": "0x60a06040523480156200001157600080fd5b5060405162002e5d38038062002e5d833981016040819052620000349162000162565b6040518060400160405280600c81526020016b2a32b1b43737b4b921b63ab160a11b815250604051806040016040528060048152602001632727a4a960e11b815250620000906200008a6200010e60201b60201c565b62000112565b60016200009e838262000221565b506002620000ad828262000221565b50505060018111620001055760405162461bcd60e51b815260206004820152601760248201527f4d696e696d756d20322067656e30207265717569726564000000000000000000604482015260640160405180910390fd5b608052620002ed565b3390565b600080546001600160a01b038381166001600160a01b0319831681178455604051919092169283917f8be0079c531659141344cd1fd0a4f28419497f9722a3daafe3b4186f6b6457e09190a35050565b6000602082840312156200017557600080fd5b5051919050565b634e487b7160e01b600052604160045260246000fd5b600181811c90821680620001a757607f821691505b602082108103620001c857634e487b7160e01b600052602260045260246000fd5b50919050565b601f8211156200021c57600081815260208120601f850160051c81016020861015620001f75750805b601f850160051c820191505b81811015620002185782815560010162000203565b5050505b505050565b81516001600160401b038111156200023d576200023d6200017c565b62000255816200024e845462000192565b84620001ce565b602080601f8311600181146200028d5760008415620002745750858301515b600019600386901b1c1916600185901b17855562000218565b600085815260208120601f198616915b82811015620002be578886015182559484019460019091019084016200029d565b5085821015620002dd5787850151600019600388901b60f8161c191681555b5050505050600190811b01905550565b608051612b4d620003106000396000818161051001526115560152612b4d6000f3fe6080604052600436106101b75760003560e01c80638da5cb5b116100ec578063b48343301161008a578063c87b56dd11610064578063c87b56dd14610567578063e985e9c514610587578063eed3bbb4146105d0578063f2fde38b146105f057600080fd5b8063b4834330146104fe578063b88d4fde14610532578063c0c3c33d1461055257600080fd5b806395d89b41116100c657806395d89b41146104a1578063a22cb465146104b6578063ae6b016c146104d6578063b331ae57146104eb57600080fd5b80638da5cb5b14610443578063941b055b1461046157806395a0f9c71461048157600080fd5b806342842e0e116101595780636352211e116101335780636352211e146103c157806370a08231146103e1578063715018a6146104015780638462151c1461041657600080fd5b806342842e0e146103185780634579268a146103385780634d4d09df146103a157600080fd5b8063095ea7b311610195578063095ea7b31461024b57806318160ddd1461026d5780631dbad5e51461029057806323b872dd146102f857600080fd5b806301ffc9a7146101bc57806306fdde03146101f1578063081812fc14610213575b600080fd5b3480156101c857600080fd5b506101dc6101d7366004612456565b610610565b60405190151581526020015b60405180910390f35b3480156101fd57600080fd5b50610206610662565b6040516101e891906124cb565b34801561021f57600080fd5b5061023361022e3660046124de565b6106f4565b6040516001600160a01b0390911681526020016101e8565b34801561025757600080fd5b5061026b610266366004612513565b61071b565b005b34801561027957600080fd5b50610282610835565b6040519081526020016101e8565b34801561029c57600080fd5b506102b06102ab366004612554565b61084c565b604080516001600160401b0397881681529587166020870152938616938501939093529316606083015263ffffffff92831660808301529190911660a082015260c0016101e8565b34801561030457600080fd5b5061026b61031336600461256f565b61096b565b34801561032457600080fd5b5061026b61033336600461256f565b61099c565b34801561034457600080fd5b5061037c6103533660046124de565b6000908152600960205260409020805460018201546002909201546001600160a01b0390911692565b604080516001600160a01b0390941684526020840192909252908201526060016101e8565b3480156103ad57600080fd5b5061026b6103bc3660046125ab565b6109b7565b3480156103cd57600080fd5b506102336103dc3660046124de565b610af2565b3480156103ed57600080fd5b506102826103fc3660046125de565b610b52565b34801561040d57600080fd5b5061026b610bd8565b34801561042257600080fd5b506104366104313660046125de565b610bec565b6040516101e891906125f9565b34801561044f57600080fd5b506000546001600160a01b0316610233565b34801561046d57600080fd5b5061026b61047c36600461263d565b610ce6565b34801561048d57600080fd5b5061026b61049c3660046124de565b610f13565b3480156104ad57600080fd5b50610206611162565b3480156104c257600080fd5b5061026b6104d136600461265f565b611171565b3480156104e257600080fd5b50610436611180565b61026b6104f93660046124de565b61127d565b34801561050a57600080fd5b506102827f000000000000000000000000000000000000000000000000000000000000000081565b34801561053e57600080fd5b5061026b61054d3660046126b1565b6114a8565b34801561055e57600080fd5b50600b54610282565b34801561057357600080fd5b506102066105823660046124de565b6114e0565b34801561059357600080fd5b506101dc6105a236600461278c565b6001600160a01b03918216600090815260066020908152604080832093909416825291909152205460ff1690565b3480156105dc57600080fd5b5061026b6105eb366004612554565b611554565b3480156105fc57600080fd5b5061026b61060b3660046125de565b611619565b60006001600160e01b031982166380ac58cd60e01b148061064157506001600160e01b03198216635b5e139f60e01b145b8061065c57506301ffc9a760e01b6001600160e01b03198316145b92915050565b606060018054610671906127b6565b80601f016020809104026020016040519081016040528092919081815260200182805461069d906127b6565b80156106ea5780601f106106bf576101008083540402835291602001916106ea565b820191906000526020600020905b8154815290600101906020018083116106cd57829003601f168201915b5050505050905090565b60006106ff82611692565b506000908152600560205260409020546001600160a01b031690565b600061072682610af2565b9050806001600160a01b0316836001600160a01b0316036107985760405162461bcd60e51b815260206004820152602160248201527f4552433732313a20617070726f76616c20746f2063757272656e74206f776e656044820152603960f91b60648201526084015b60405180910390fd5b336001600160a01b03821614806107b457506107b481336105a2565b6108265760405162461bcd60e51b815260206004820152603e60248201527f4552433732313a20617070726f76652063616c6c6572206973206e6f7420746f60448201527f6b656e206f776e6572206e6f7220617070726f76656420666f7220616c6c0000606482015260840161078f565b61083083836116f1565b505050565b60075460009061084790600190612800565b905090565b60008060008060008060006007886001600160401b03168154811061087357610873612817565b60009182526020918290206040805160c081018252600290930290910180546001600160401b038082168552600160401b82048116958501869052600160801b8204811693850193909352600160c01b900490911660608301526001015463ffffffff80821660808401526401000000009091041660a0820152915061093b5760405162461bcd60e51b815260206004820152601760248201527f54686520726f626f7420646f65736e2774206578697374000000000000000000604482015260640161078f565b8051602082015160408301516060840151608085015160a090950151939c929b5090995097509195509350915050565b610975338261175f565b6109915760405162461bcd60e51b815260040161078f9061282d565b6108308383836117de565b610830838383604051806020016040528060008152506114a8565b336109ca6001600160401b038416610af2565b6001600160a01b0316146109f05760405162461bcd60e51b815260040161078f9061287b565b33610a036001600160401b038316610af2565b6001600160a01b031614610a295760405162461bcd60e51b815260040161078f9061287b565b806001600160401b0316826001600160401b031603610a965760405162461bcd60e51b8152602060048201526024808201527f54686520726f626f742063616e2774206d6f646966792068696d73656c6620616044820152636c6f6e6560e01b606482015260840161078f565b600080610aa28461084c565b5094505050509150600080610ab68561084c565b50945050505091506000610aca858461197a565b90506000610ad88584611ca0565b9050610ae78289898433611cfd565b505050505050505050565b6000818152600360205260408120546001600160a01b03168061065c5760405162461bcd60e51b8152602060048201526018602482015277115490cdcc8c4e881a5b9d985b1a59081d1bdad95b88125160421b604482015260640161078f565b60006001600160a01b038216610bbc5760405162461bcd60e51b815260206004820152602960248201527f4552433732313a2061646472657373207a65726f206973206e6f7420612076616044820152683634b21037bbb732b960b91b606482015260840161078f565b506001600160a01b031660009081526004602052604090205490565b610be0611f00565b610bea6000611f5a565b565b60606000610bf983610b52565b905080600003610c19575050604080516000815260208101909152919050565b6000816001600160401b03811115610c3357610c3361269b565b604051908082528060200260200182016040528015610c5c578160200160208202803683370190505b5090506000610c69610835565b90506000805b828111610cd557866001600160a01b0316610c8982610af2565b6001600160a01b031603610cc35780848381518110610caa57610caa612817565b602090810291909101015281610cbf816128cc565b9250505b80610ccd816128cc565b915050610c6f565b509195945050505050565b50919050565b81600003610d2d5760405162461bcd60e51b815260206004820152601460248201527350726963652063616e6e6f74206265207a65726f60601b604482015260640161078f565b60008181526009602052604090206001015415610d985760405162461bcd60e51b8152602060048201526024808201527f596f752063616e27742073656c6c207477696365207468652073616d65206f666044820152636665727360e01b606482015260840161078f565b60408051606081018252338152602080820185815282840185815260008681526009909352938220835181546001600160a01b039182166001600160a01b031991821617835583516001808501919091558751600290940193909355600880548085018255818752875160039091027ff3f7a9fe364faab93b216da50a3214154f22a0a2b415b23a84c8169e8b636ee38101805492909516919093161790925592517ff3f7a9fe364faab93b216da50a3214154f22a0a2b415b23a84c8169e8b636ee484015594517ff3f7a9fe364faab93b216da50a3214154f22a0a2b415b23a84c8169e8b636ee590920191909155925491929091610e989190612800565b6000848152600a602090815260409182902083905581516060808252600c908201526b21b932b0ba329037b33332b960a11b608082015233918101919091529081018590529091507fd99e4fad9ad6313b1feb588fa8e605e3a9873172f2024330c35dd2b4041a43869060a00160405180910390a150505050565b33610f1d82610af2565b6001600160a01b031614610f735760405162461bcd60e51b815260206004820152601f60248201527f546865207573657220646f65736e2774206f776e207468697320746f6b656e00604482015260640161078f565b600081815260096020908152604091829020825160608101845281546001600160a01b0316808252600183015493820193909352600290910154928101929092523314610ff95760405162461bcd60e51b81526020600482015260146024820152734e6f2073756368206f666665722065786973747360601b604482015260640161078f565b6008805461100990600190612800565b8154811061101957611019612817565b90600052602060002090600302016008600a6000858152602001908152602001600020548154811061104d5761104d612817565b60009182526020909120825460039092020180546001600160a01b0319166001600160a01b039092169190911781556001808301549082015560029182015491015560088054806110a0576110a06128e5565b6000828152602080822060036000199094019384020180546001600160a01b0319908116825560018281018590556002928301859055949095558683526009909152604082208054909416845591830181905591015561110033836116f1565b604080516060808252600c908201526b2932b6b7bb329037b33332b960a11b60808201523360208201529081018390527fd99e4fad9ad6313b1feb588fa8e605e3a9873172f2024330c35dd2b4041a43869060a0015b60405180910390a15050565b606060028054610671906127b6565b61117c338383611faa565b5050565b60085460609060008190036111a357505060408051600081526020810190915290565b6000816001600160401b038111156111bd576111bd61269b565b6040519080825280602002602001820160405280156111e6578160200160208202803683370190505b50905060005b82811015611276576008818154811061120757611207612817565b906000526020600020906003020160010154600014611264576008818154811061123357611233612817565b90600052602060002090600302016002015482828151811061125757611257612817565b6020026020010181815250505b8061126e816128cc565b9150506111ec565b5092915050565b600081815260096020908152604091829020825160608101845281546001600160a01b03168152600182015492810183905260029091015492810192909252341461130a5760405162461bcd60e51b815260206004820152601860248201527f546865207072696365206973206e6f7420636f72726563740000000000000000604482015260640161078f565b6008805461131a90600190612800565b8154811061132a5761132a612817565b90600052602060002090600302016008600a6000858152602001908152602001600020548154811061135e5761135e612817565b60009182526020909120825460039092020180546001600160a01b0319166001600160a01b039092169190911781556001808301549082015560029182015491015560088054806113b1576113b16128e5565b6000828152602080822060036000199094019384020180546001600160a01b0319908116825560018281018590556002928301859055949095558683526009909152604082208054909416845591830181905591015561141133836116f1565b805161141e90338461096b565b80516040516001600160a01b03909116903480156108fc02916000818181858888f19350505050158015611456573d6000803e3d6000fd5b506040805160608082526003908201526242757960e81b60808201523360208201529081018390527fd99e4fad9ad6313b1feb588fa8e605e3a9873172f2024330c35dd2b4041a43869060a001611156565b6114b2338361175f565b6114ce5760405162461bcd60e51b815260040161078f9061282d565b6114da84848484612078565b50505050565b60606114eb82611692565b600061150260408051602081019091526000815290565b90506000815111611522576040518060200160405280600081525061154d565b8061152c846120ab565b60405160200161153d9291906128fb565b6040516020818303038152906040525b9392505050565b7f0000000000000000000000000000000000000000000000000000000000000000600b54106115df5760405162461bcd60e51b815260206004820152603160248201527f47656e3020746865206e756d626572206f6620726f626f747320686173207265604482015270616368656420697473206d6178696d756d60781b606482015260840161078f565b600b80549060006115ef836128cc565b9190505550600061160582600080600033611cfd565b905061117c6702c68af0bb14000082610ce6565b611621611f00565b6001600160a01b0381166116865760405162461bcd60e51b815260206004820152602660248201527f4f776e61626c653a206e6577206f776e657220697320746865207a65726f206160448201526564647265737360d01b606482015260840161078f565b61168f81611f5a565b50565b6000818152600360205260409020546001600160a01b031661168f5760405162461bcd60e51b8152602060048201526018602482015277115490cdcc8c4e881a5b9d985b1a59081d1bdad95b88125160421b604482015260640161078f565b600081815260056020526040902080546001600160a01b0319166001600160a01b038416908117909155819061172682610af2565b6001600160a01b03167f8c5be1e5ebec7d5bd14f71427d1e84f3dd0314c0f7b2291e5b200ac8c7c3b92560405160405180910390a45050565b60008061176b83610af2565b9050806001600160a01b0316846001600160a01b031614806117b257506001600160a01b0380821660009081526006602090815260408083209388168352929052205460ff165b806117d65750836001600160a01b03166117cb846106f4565b6001600160a01b0316145b949350505050565b826001600160a01b03166117f182610af2565b6001600160a01b0316146118555760405162461bcd60e51b815260206004820152602560248201527f4552433732313a207472616e736665722066726f6d20696e636f72726563742060448201526437bbb732b960d91b606482015260840161078f565b6001600160a01b0382166118b75760405162461bcd60e51b8152602060048201526024808201527f4552433732313a207472616e7366657220746f20746865207a65726f206164646044820152637265737360e01b606482015260840161078f565b6118c26000826116f1565b6001600160a01b03831660009081526004602052604081208054600192906118eb908490612800565b90915550506001600160a01b038216600090815260046020526040812080546001929061191990849061292a565b909155505060008181526003602052604080822080546001600160a01b0319166001600160a01b0386811691821790925591518493918716917fddf252ad1be2c89b69c2b068fc378daa952ba7f163c4a11628f55a4df523b3ef91a4505050565b600080611985612421565b6008600060015b60808111611b6e5760ff4244336040516020016119ce93929190928352602083019190915260601b6bffffffffffffffffffffffff1916604082015260540190565b6040516020818303038152906040528051906020012060001c6119f19190612958565b91506119fe60018461296c565b925080601003611aaf57611a13600283612958565b15611a5657611a23600a89612994565b84846001600160401b031660088110611a3e57611a3e612817565b6001600160401b039092166020929092020152611a90565b611a61600a88612994565b84846001600160401b031660088110611a7c57611a7c612817565b6001600160401b0390921660209290920201525b611a9b600a896129ba565b9750611aa8600a886129ba565b9650611b5c565b81811615611b0857611ac2606489612994565b84846001600160401b031660088110611add57611add612817565b6001600160401b039092166020929092020152611afb6064896129ba565b9750611aa86064886129ba565b611b13606488612994565b84846001600160401b031660088110611b2e57611b2e612817565b6001600160401b039092166020929092020152611b4c6064896129ba565b9750611b596064886129ba565b96505b611b676002826129e0565b905061198c565b506000611b7c600883612958565b9050806001600160401b0316600303611bd857611b9a600983612958565b611ba59060016129ff565b84826001600160401b031660088110611bc057611bc0612817565b6001600160401b039092166020929092020152611c1d565b611be3605983612958565b611bee90600b6129ff565b84826001600160401b031660088110611c0957611c09612817565b6001600160401b0390921660209290920201525b60005b6008811015611c9357848160088110611c3b57611c3b612817565b6020020151611c53906001600160401b03168761292a565b955080600714611c6b57611c686064876129e0565b95505b80600203611c8157611c7e600a87612a21565b95505b80611c8b816128cc565b915050611c20565b5093979650505050505050565b60008063ffffffff8085169084161015611cd357611cbf846001612a35565b9050611ccc600282612a54565b905061154d565b8363ffffffff168363ffffffff161115611cf257611cbf836001612a35565b6117d6846001612a35565b600780546040805160c0810182526001600160401b03808a16825242818116602084019081528a83168486019081528a84166060860190815263ffffffff808c1660808801908152818a1660a0890190815260018b018c5560009b8c52885160028c027fa66cc928b5edb82af9bd49922954155ab7b0942694bea4ce44661d9a8736c688810180549851975196518b16600160c01b026001600160c01b03978c16600160801b02979097166fffffffffffffffffffffffffffffffff988c16600160401b026fffffffffffffffffffffffffffffffff19909a1693909b169290921797909717959095169790971792909217909255517fa66cc928b5edb82af9bd49922954155ab7b0942694bea4ce44661d9a8736c6899092018054945182166401000000000267ffffffffffffffff199590951692909116919091179290921790915591517ff157aa1bbe0df6f741b6f2725132b0471d2a6d0eb8dd7bdca9853e2f2a8d54c790611ec690879085908d908d908d908d908b906001600160a01b039790971687526001600160401b03958616602088015293851660408701529184166060860152909216608084015263ffffffff91821660a08401521660c082015260e00190565b60405180910390a1611eee338463ffffffff16604051806020016040528060008152506121ab565b505063ffffffff169695505050505050565b6000546001600160a01b03163314610bea5760405162461bcd60e51b815260206004820181905260248201527f4f776e61626c653a2063616c6c6572206973206e6f7420746865206f776e6572604482015260640161078f565b600080546001600160a01b038381166001600160a01b0319831681178455604051919092169283917f8be0079c531659141344cd1fd0a4f28419497f9722a3daafe3b4186f6b6457e09190a35050565b816001600160a01b0316836001600160a01b03160361200b5760405162461bcd60e51b815260206004820152601960248201527f4552433732313a20617070726f766520746f2063616c6c657200000000000000604482015260640161078f565b6001600160a01b03838116600081815260066020908152604080832094871680845294825291829020805460ff191686151590811790915591519182527f17307eab39ab6107e8899845ad3d59bd9653f200f220920489ca2b5937696c31910160405180910390a3505050565b6120838484846117de565b61208f848484846121de565b6114da5760405162461bcd60e51b815260040161078f90612a6b565b6060816000036120d25750506040805180820190915260018152600360fc1b602082015290565b8160005b81156120fc57806120e6816128cc565b91506120f59050600a83612a21565b91506120d6565b6000816001600160401b038111156121165761211661269b565b6040519080825280601f01601f191660200182016040528015612140576020820181803683370190505b5090505b84156117d657612155600183612800565b9150612162600a86612958565b61216d90603061292a565b60f81b81838151811061218257612182612817565b60200101906001600160f81b031916908160001a9053506121a4600a86612a21565b9450612144565b6121b583836122df565b6121c260008484846121de565b6108305760405162461bcd60e51b815260040161078f90612a6b565b60006001600160a01b0384163b156122d457604051630a85bd0160e11b81526001600160a01b0385169063150b7a0290612222903390899088908890600401612abd565b6020604051808303816000875af192505050801561225d575060408051601f3d908101601f1916820190925261225a91810190612afa565b60015b6122ba573d80801561228b576040519150601f19603f3d011682016040523d82523d6000602084013e612290565b606091505b5080516000036122b25760405162461bcd60e51b815260040161078f90612a6b565b805181602001fd5b6001600160e01b031916630a85bd0160e11b1490506117d6565b506001949350505050565b6001600160a01b0382166123355760405162461bcd60e51b815260206004820181905260248201527f4552433732313a206d696e7420746f20746865207a65726f2061646472657373604482015260640161078f565b6000818152600360205260409020546001600160a01b03161561239a5760405162461bcd60e51b815260206004820152601c60248201527f4552433732313a20746f6b656e20616c7265616479206d696e74656400000000604482015260640161078f565b6001600160a01b03821660009081526004602052604081208054600192906123c390849061292a565b909155505060008181526003602052604080822080546001600160a01b0319166001600160a01b03861690811790915590518392907fddf252ad1be2c89b69c2b068fc378daa952ba7f163c4a11628f55a4df523b3ef908290a45050565b6040518061010001604052806008906020820280368337509192915050565b6001600160e01b03198116811461168f57600080fd5b60006020828403121561246857600080fd5b813561154d81612440565b60005b8381101561248e578181015183820152602001612476565b838111156114da5750506000910152565b600081518084526124b7816020860160208601612473565b601f01601f19169290920160200192915050565b60208152600061154d602083018461249f565b6000602082840312156124f057600080fd5b5035919050565b80356001600160a01b038116811461250e57600080fd5b919050565b6000806040838503121561252657600080fd5b61252f836124f7565b946020939093013593505050565b80356001600160401b038116811461250e57600080fd5b60006020828403121561256657600080fd5b61154d8261253d565b60008060006060848603121561258457600080fd5b61258d846124f7565b925061259b602085016124f7565b9150604084013590509250925092565b600080604083850312156125be57600080fd5b6125c78361253d565b91506125d56020840161253d565b90509250929050565b6000602082840312156125f057600080fd5b61154d826124f7565b6020808252825182820181905260009190848201906040850190845b8181101561263157835183529284019291840191600101612615565b50909695505050505050565b6000806040838503121561265057600080fd5b50508035926020909101359150565b6000806040838503121561267257600080fd5b61267b836124f7565b91506020830135801515811461269057600080fd5b809150509250929050565b634e487b7160e01b600052604160045260246000fd5b600080600080608085870312156126c757600080fd5b6126d0856124f7565b93506126de602086016124f7565b92506040850135915060608501356001600160401b038082111561270157600080fd5b818701915087601f83011261271557600080fd5b8135818111156127275761272761269b565b604051601f8201601f19908116603f0116810190838211818310171561274f5761274f61269b565b816040528281528a602084870101111561276857600080fd5b82602086016020830137600060208483010152809550505050505092959194509250565b6000806040838503121561279f57600080fd5b6127a8836124f7565b91506125d5602084016124f7565b600181811c908216806127ca57607f821691505b602082108103610ce057634e487b7160e01b600052602260045260246000fd5b634e487b7160e01b600052601160045260246000fd5b600082821015612812576128126127ea565b500390565b634e487b7160e01b600052603260045260246000fd5b6020808252602e908201527f4552433732313a2063616c6c6572206973206e6f7420746f6b656e206f776e6560408201526d1c881b9bdc88185c1c1c9bdd995960921b606082015260800190565b60208082526031908201527f4f6e65206f7220626f7468206f662074686520746f6b656e7320646f206e6f74604082015270103132b637b733903a379031b0b63632b960791b606082015260800190565b6000600182016128de576128de6127ea565b5060010190565b634e487b7160e01b600052603160045260246000fd5b6000835161290d818460208801612473565b835190830190612921818360208801612473565b01949350505050565b6000821982111561293d5761293d6127ea565b500190565b634e487b7160e01b600052601260045260246000fd5b60008261296757612967612942565b500690565b60006001600160401b038381169083168181101561298c5761298c6127ea565b039392505050565b60006001600160401b03808416806129ae576129ae612942565b92169190910692915050565b60006001600160401b03808416806129d4576129d4612942565b92169190910492915050565b60008160001904831182151516156129fa576129fa6127ea565b500290565b60006001600160401b03808316818516808303821115612921576129216127ea565b600082612a3057612a30612942565b500490565b600063ffffffff808316818516808303821115612921576129216127ea565b600063ffffffff808416806129d4576129d4612942565b60208082526032908201527f4552433732313a207472616e7366657220746f206e6f6e20455243373231526560408201527131b2b4bb32b91034b6b83632b6b2b73a32b960711b606082015260800190565b6001600160a01b0385811682528416602082015260408101839052608060608201819052600090612af09083018461249f565b9695505050505050565b600060208284031215612b0c57600080fd5b815161154d8161244056fea2646970667358221220b7a352f2d60dc79d07af8afd8bbaad5ba9765f0720475047c9f53d35a324c0ed64736f6c634300080f0033",
  "linkReferences": {},
  "deployedLinkReferences": {}
}