{
  "_format": "hh-sol-artifact-1",
  "contractName": "RobotFactory",
  "sourceName": "contracts/RobotFactory.sol",
  "abi": [
    {
      "anonymous": false,
      "inputs": [
        {
          "indexed": true,
          "internalType": "address",
          "name": "owner",
          "type": "address"
        },
        {
          "indexed": true,
          "internalType": "address",
          "name": "approved",
          "type": "address"
        },
        {
          "indexed": true,
          "internalType": "uint256",
          "name": "tokenId",
          "type": "uint256"
        }
      ],
      "name": "Approval",
      "type": "event"
    },
    {
      "anonymous": false,
      "inputs": [
        {
          "indexed": true,
          "internalType": "address",
          "name": "owner",
          "type": "address"
        },
        {
          "indexed": true,
          "internalType": "address",
          "name": "operator",
          "type": "address"
        },
        {
          "indexed": false,
          "internalType": "bool",
          "name": "approved",
          "type": "bool"
        }
      ],
      "name": "ApprovalForAll",
      "type": "event"
    },
    {
      "anonymous": false,
      "inputs": [
        {
          "indexed": false,
          "internalType": "address",
          "name": "owner",
          "type": "address"
        },
        {
          "indexed": false,
          "internalType": "uint64",
          "name": "buildTime",
          "type": "uint64"
        },
        {
          "indexed": false,
          "internalType": "uint64",
          "name": "robotId",
          "type": "uint64"
        },
        {
          "indexed": false,
          "internalType": "uint64",
          "name": "firstRobotParentId",
          "type": "uint64"
        },
        {
          "indexed": false,
          "internalType": "uint64",
          "name": "secondRobotParentId",
          "type": "uint64"
        },
        {
          "indexed": false,
          "internalType": "uint32",
          "name": "generation",
          "type": "uint32"
        },
        {
          "indexed": false,
          "internalType": "uint32",
          "name": "tokenId",
          "type": "uint32"
        }
      ],
      "name": "Build",
      "type": "event"
    },
    {
      "anonymous": false,
      "inputs": [
        {
          "indexed": true,
          "internalType": "address",
          "name": "from",
          "type": "address"
        },
        {
          "indexed": true,
          "internalType": "address",
          "name": "to",
          "type": "address"
        },
        {
          "indexed": true,
          "internalType": "uint256",
          "name": "tokenId",
          "type": "uint256"
        }
      ],
      "name": "Transfer",
      "type": "event"
    },
    {
      "inputs": [
        {
          "internalType": "address",
          "name": "to",
          "type": "address"
        },
        {
          "internalType": "uint256",
          "name": "tokenId",
          "type": "uint256"
        }
      ],
      "name": "approve",
      "outputs": [],
      "stateMutability": "nonpayable",
      "type": "function"
    },
    {
      "inputs": [
        {
          "internalType": "address",
          "name": "owner",
          "type": "address"
        }
      ],
      "name": "balanceOf",
      "outputs": [
        {
          "internalType": "uint256",
          "name": "",
          "type": "uint256"
        }
      ],
      "stateMutability": "view",
      "type": "function"
    },
    {
      "inputs": [
        {
          "internalType": "uint256",
          "name": "tokenId",
          "type": "uint256"
        }
      ],
      "name": "getApproved",
      "outputs": [
        {
          "internalType": "address",
          "name": "",
          "type": "address"
        }
      ],
      "stateMutability": "view",
      "type": "function"
    },
    {
      "inputs": [
        {
          "internalType": "address",
          "name": "owner",
          "type": "address"
        },
        {
          "internalType": "address",
          "name": "operator",
          "type": "address"
        }
      ],
      "name": "isApprovedForAll",
      "outputs": [
        {
          "internalType": "bool",
          "name": "",
          "type": "bool"
        }
      ],
      "stateMutability": "view",
      "type": "function"
    },
    {
      "inputs": [],
      "name": "name",
      "outputs": [
        {
          "internalType": "string",
          "name": "",
          "type": "string"
        }
      ],
      "stateMutability": "view",
      "type": "function"
    },
    {
      "inputs": [
        {
          "internalType": "uint256",
          "name": "tokenId",
          "type": "uint256"
        }
      ],
      "name": "ownerOf",
      "outputs": [
        {
          "internalType": "address",
          "name": "",
          "type": "address"
        }
      ],
      "stateMutability": "view",
      "type": "function"
    },
    {
      "inputs": [
        {
          "internalType": "address",
          "name": "from",
          "type": "address"
        },
        {
          "internalType": "address",
          "name": "to",
          "type": "address"
        },
        {
          "internalType": "uint256",
          "name": "tokenId",
          "type": "uint256"
        }
      ],
      "name": "safeTransferFrom",
      "outputs": [],
      "stateMutability": "nonpayable",
      "type": "function"
    },
    {
      "inputs": [
        {
          "internalType": "address",
          "name": "from",
          "type": "address"
        },
        {
          "internalType": "address",
          "name": "to",
          "type": "address"
        },
        {
          "internalType": "uint256",
          "name": "tokenId",
          "type": "uint256"
        },
        {
          "internalType": "bytes",
          "name": "data",
          "type": "bytes"
        }
      ],
      "name": "safeTransferFrom",
      "outputs": [],
      "stateMutability": "nonpayable",
      "type": "function"
    },
    {
      "inputs": [
        {
          "internalType": "address",
          "name": "operator",
          "type": "address"
        },
        {
          "internalType": "bool",
          "name": "approved",
          "type": "bool"
        }
      ],
      "name": "setApprovalForAll",
      "outputs": [],
      "stateMutability": "nonpayable",
      "type": "function"
    },
    {
      "inputs": [
        {
          "internalType": "bytes4",
          "name": "interfaceId",
          "type": "bytes4"
        }
      ],
      "name": "supportsInterface",
      "outputs": [
        {
          "internalType": "bool",
          "name": "",
          "type": "bool"
        }
      ],
      "stateMutability": "view",
      "type": "function"
    },
    {
      "inputs": [],
      "name": "symbol",
      "outputs": [
        {
          "internalType": "string",
          "name": "",
          "type": "string"
        }
      ],
      "stateMutability": "view",
      "type": "function"
    },
    {
      "inputs": [
        {
          "internalType": "uint256",
          "name": "tokenId",
          "type": "uint256"
        }
      ],
      "name": "tokenURI",
      "outputs": [
        {
          "internalType": "string",
          "name": "",
          "type": "string"
        }
      ],
      "stateMutability": "view",
      "type": "function"
    },
    {
      "inputs": [
        {
          "internalType": "address",
          "name": "owner_",
          "type": "address"
        }
      ],
      "name": "tokensOfOwner",
      "outputs": [
        {
          "internalType": "uint256[]",
          "name": "ownerTokens",
          "type": "uint256[]"
        }
      ],
      "stateMutability": "view",
      "type": "function"
    },
    {
      "inputs": [],
      "name": "totalSupply",
      "outputs": [
        {
          "internalType": "uint256",
          "name": "",
          "type": "uint256"
        }
      ],
      "stateMutability": "view",
      "type": "function"
    },
    {
      "inputs": [
        {
          "internalType": "address",
          "name": "from",
          "type": "address"
        },
        {
          "internalType": "address",
          "name": "to",
          "type": "address"
        },
        {
          "internalType": "uint256",
          "name": "tokenId",
          "type": "uint256"
        }
      ],
      "name": "transferFrom",
      "outputs": [],
      "stateMutability": "nonpayable",
      "type": "function"
    }
  ],
  "bytecode": "0x60806040523480156200001157600080fd5b506040518060400160405280600c81526020016b2a32b1b43737b4b921b63ab160a11b815250604051806040016040528060048152602001632727a4a960e11b815250816000908162000065919062000122565b50600162000074828262000122565b505050620001ee565b634e487b7160e01b600052604160045260246000fd5b600181811c90821680620000a857607f821691505b602082108103620000c957634e487b7160e01b600052602260045260246000fd5b50919050565b601f8211156200011d57600081815260208120601f850160051c81016020861015620000f85750805b601f850160051c820191505b81811015620001195782815560010162000104565b5050505b505050565b81516001600160401b038111156200013e576200013e6200007d565b62000156816200014f845462000093565b84620000cf565b602080601f8311600181146200018e5760008415620001755750858301515b600019600386901b1c1916600185901b17855562000119565b600085815260208120601f198616915b82811015620001bf578886015182559484019460019091019084016200019e565b5085821015620001de5787850151600019600388901b60f8161c191681555b5050505050600190811b01905550565b6112d580620001fe6000396000f3fe608060405234801561001057600080fd5b50600436106100f55760003560e01c80636352211e11610097578063a22cb46511610066578063a22cb46514610201578063b88d4fde14610214578063c87b56dd14610227578063e985e9c51461023a57600080fd5b80636352211e146101b357806370a08231146101c65780638462151c146101d957806395d89b41146101f957600080fd5b8063095ea7b3116100d3578063095ea7b31461016257806318160ddd1461017757806323b872dd1461018d57806342842e0e146101a057600080fd5b806301ffc9a7146100fa57806306fdde0314610122578063081812fc14610137575b600080fd5b61010d610108366004610dad565b610276565b60405190151581526020015b60405180910390f35b61012a6102c8565b6040516101199190610e22565b61014a610145366004610e35565b61035a565b6040516001600160a01b039091168152602001610119565b610175610170366004610e6a565b610381565b005b61017f61049b565b604051908152602001610119565b61017561019b366004610e94565b6104b2565b6101756101ae366004610e94565b6104e3565b61014a6101c1366004610e35565b6104fe565b61017f6101d4366004610ed0565b61055e565b6101ec6101e7366004610ed0565b6105e4565b6040516101199190610eeb565b61012a6106df565b61017561020f366004610f2f565b6106ee565b610175610222366004610f81565b6106fd565b61012a610235366004610e35565b610735565b61010d61024836600461105d565b6001600160a01b03918216600090815260056020908152604080832093909416825291909152205460ff1690565b60006001600160e01b031982166380ac58cd60e01b14806102a757506001600160e01b03198216635b5e139f60e01b145b806102c257506301ffc9a760e01b6001600160e01b03198316145b92915050565b6060600080546102d790611090565b80601f016020809104026020016040519081016040528092919081815260200182805461030390611090565b80156103505780601f1061032557610100808354040283529160200191610350565b820191906000526020600020905b81548152906001019060200180831161033357829003601f168201915b5050505050905090565b6000610365826107a9565b506000908152600460205260409020546001600160a01b031690565b600061038c826104fe565b9050806001600160a01b0316836001600160a01b0316036103fe5760405162461bcd60e51b815260206004820152602160248201527f4552433732313a20617070726f76616c20746f2063757272656e74206f776e656044820152603960f91b60648201526084015b60405180910390fd5b336001600160a01b038216148061041a575061041a8133610248565b61048c5760405162461bcd60e51b815260206004820152603e60248201527f4552433732313a20617070726f76652063616c6c6572206973206e6f7420746f60448201527f6b656e206f776e6572206e6f7220617070726f76656420666f7220616c6c000060648201526084016103f5565b610496838361080b565b505050565b6006546000906104ad906001906110da565b905090565b6104bc3382610879565b6104d85760405162461bcd60e51b81526004016103f5906110f1565b6104968383836108f8565b610496838383604051806020016040528060008152506106fd565b6000818152600260205260408120546001600160a01b0316806102c25760405162461bcd60e51b8152602060048201526018602482015277115490cdcc8c4e881a5b9d985b1a59081d1bdad95b88125160421b60448201526064016103f5565b60006001600160a01b0382166105c85760405162461bcd60e51b815260206004820152602960248201527f4552433732313a2061646472657373207a65726f206973206e6f7420612076616044820152683634b21037bbb732b960b91b60648201526084016103f5565b506001600160a01b031660009081526003602052604090205490565b606060006105f18361055e565b905080600003610611575050604080516000815260208101909152919050565b60008167ffffffffffffffff81111561062c5761062c610f6b565b604051908082528060200260200182016040528015610655578160200160208202803683370190505b509050600061066261049b565b90506000805b8281116106ce57866001600160a01b0316610682826104fe565b6001600160a01b0316036106bc57808483815181106106a3576106a361113f565b6020908102919091010152816106b881611155565b9250505b806106c681611155565b915050610668565b509195945050505050565b50919050565b6060600180546102d790611090565b6106f9338383610a94565b5050565b6107073383610879565b6107235760405162461bcd60e51b81526004016103f5906110f1565b61072f84848484610b62565b50505050565b6060610740826107a9565b600061075760408051602081019091526000815290565b9050600081511161077757604051806020016040528060008152506107a2565b8061078184610b95565b60405160200161079292919061116e565b6040516020818303038152906040525b9392505050565b6000818152600260205260409020546001600160a01b03166108085760405162461bcd60e51b8152602060048201526018602482015277115490cdcc8c4e881a5b9d985b1a59081d1bdad95b88125160421b60448201526064016103f5565b50565b600081815260046020526040902080546001600160a01b0319166001600160a01b0384169081179091558190610840826104fe565b6001600160a01b03167f8c5be1e5ebec7d5bd14f71427d1e84f3dd0314c0f7b2291e5b200ac8c7c3b92560405160405180910390a45050565b600080610885836104fe565b9050806001600160a01b0316846001600160a01b031614806108cc57506001600160a01b0380821660009081526005602090815260408083209388168352929052205460ff165b806108f05750836001600160a01b03166108e58461035a565b6001600160a01b0316145b949350505050565b826001600160a01b031661090b826104fe565b6001600160a01b03161461096f5760405162461bcd60e51b815260206004820152602560248201527f4552433732313a207472616e736665722066726f6d20696e636f72726563742060448201526437bbb732b960d91b60648201526084016103f5565b6001600160a01b0382166109d15760405162461bcd60e51b8152602060048201526024808201527f4552433732313a207472616e7366657220746f20746865207a65726f206164646044820152637265737360e01b60648201526084016103f5565b6109dc60008261080b565b6001600160a01b0383166000908152600360205260408120805460019290610a059084906110da565b90915550506001600160a01b0382166000908152600360205260408120805460019290610a3390849061119d565b909155505060008181526002602052604080822080546001600160a01b0319166001600160a01b0386811691821790925591518493918716917fddf252ad1be2c89b69c2b068fc378daa952ba7f163c4a11628f55a4df523b3ef91a4505050565b816001600160a01b0316836001600160a01b031603610af55760405162461bcd60e51b815260206004820152601960248201527f4552433732313a20617070726f766520746f2063616c6c65720000000000000060448201526064016103f5565b6001600160a01b03838116600081815260056020908152604080832094871680845294825291829020805460ff191686151590811790915591519182527f17307eab39ab6107e8899845ad3d59bd9653f200f220920489ca2b5937696c31910160405180910390a3505050565b610b6d8484846108f8565b610b7984848484610c96565b61072f5760405162461bcd60e51b81526004016103f5906111b5565b606081600003610bbc5750506040805180820190915260018152600360fc1b602082015290565b8160005b8115610be65780610bd081611155565b9150610bdf9050600a8361121d565b9150610bc0565b60008167ffffffffffffffff811115610c0157610c01610f6b565b6040519080825280601f01601f191660200182016040528015610c2b576020820181803683370190505b5090505b84156108f057610c406001836110da565b9150610c4d600a86611231565b610c5890603061119d565b60f81b818381518110610c6d57610c6d61113f565b60200101906001600160f81b031916908160001a905350610c8f600a8661121d565b9450610c2f565b60006001600160a01b0384163b15610d8c57604051630a85bd0160e11b81526001600160a01b0385169063150b7a0290610cda903390899088908890600401611245565b6020604051808303816000875af1925050508015610d15575060408051601f3d908101601f19168201909252610d1291810190611282565b60015b610d72573d808015610d43576040519150601f19603f3d011682016040523d82523d6000602084013e610d48565b606091505b508051600003610d6a5760405162461bcd60e51b81526004016103f5906111b5565b805181602001fd5b6001600160e01b031916630a85bd0160e11b1490506108f0565b506001949350505050565b6001600160e01b03198116811461080857600080fd5b600060208284031215610dbf57600080fd5b81356107a281610d97565b60005b83811015610de5578181015183820152602001610dcd565b8381111561072f5750506000910152565b60008151808452610e0e816020860160208601610dca565b601f01601f19169290920160200192915050565b6020815260006107a26020830184610df6565b600060208284031215610e4757600080fd5b5035919050565b80356001600160a01b0381168114610e6557600080fd5b919050565b60008060408385031215610e7d57600080fd5b610e8683610e4e565b946020939093013593505050565b600080600060608486031215610ea957600080fd5b610eb284610e4e565b9250610ec060208501610e4e565b9150604084013590509250925092565b600060208284031215610ee257600080fd5b6107a282610e4e565b6020808252825182820181905260009190848201906040850190845b81811015610f2357835183529284019291840191600101610f07565b50909695505050505050565b60008060408385031215610f4257600080fd5b610f4b83610e4e565b915060208301358015158114610f6057600080fd5b809150509250929050565b634e487b7160e01b600052604160045260246000fd5b60008060008060808587031215610f9757600080fd5b610fa085610e4e565b9350610fae60208601610e4e565b925060408501359150606085013567ffffffffffffffff80821115610fd257600080fd5b818701915087601f830112610fe657600080fd5b813581811115610ff857610ff8610f6b565b604051601f8201601f19908116603f0116810190838211818310171561102057611020610f6b565b816040528281528a602084870101111561103957600080fd5b82602086016020830137600060208483010152809550505050505092959194509250565b6000806040838503121561107057600080fd5b61107983610e4e565b915061108760208401610e4e565b90509250929050565b600181811c908216806110a457607f821691505b6020821081036106d957634e487b7160e01b600052602260045260246000fd5b634e487b7160e01b600052601160045260246000fd5b6000828210156110ec576110ec6110c4565b500390565b6020808252602e908201527f4552433732313a2063616c6c6572206973206e6f7420746f6b656e206f776e6560408201526d1c881b9bdc88185c1c1c9bdd995960921b606082015260800190565b634e487b7160e01b600052603260045260246000fd5b600060018201611167576111676110c4565b5060010190565b60008351611180818460208801610dca565b835190830190611194818360208801610dca565b01949350505050565b600082198211156111b0576111b06110c4565b500190565b60208082526032908201527f4552433732313a207472616e7366657220746f206e6f6e20455243373231526560408201527131b2b4bb32b91034b6b83632b6b2b73a32b960711b606082015260800190565b634e487b7160e01b600052601260045260246000fd5b60008261122c5761122c611207565b500490565b60008261124057611240611207565b500690565b6001600160a01b038581168252841660208201526040810183905260806060820181905260009061127890830184610df6565b9695505050505050565b60006020828403121561129457600080fd5b81516107a281610d9756fea2646970667358221220f5223d2f084741ac8aabb7efe8e42242df56842298e77abb732633f9306d382764736f6c634300080f0033",
  "linkReferences": {},
  "deployedLinkReferences": {}
}